:100000000C9466000C948E000C948E000C948E0060
:100010000C948E000C948E000C948E000C948E0028
:100020000C948E000C948E000C948E000C948E0018
:100030000C948E000C948E000C948E000C948E0008
:100040000C94EF010C948E000C948E000C948E0096
:100050000C948E000C948E000C948E000C948E00E8
:100060000C948E000C948E00000000080002010029
:100070000003040700000000000000001112131428
:1000800015160A0B0C0D0E0F0001020304050000EB
:100090000000250028002B0000000000240027009D
:1000A0002A000404040404040404020202020202FA
:1000B000030303030303010204081020408001022C
:1000C00004081020010204081020E60311241FBEBA
:1000D000CFEFD8E0DEBFCDBF21E0ACE0B1E001C0A2
:1000E0001D92AE32B207E1F711E0A0E0B1E0E0E12D
:1000F000F8E002C005900D92AC30B107D9F710E0DE
:10010000C6E6D0E004C02197FE010E940004C53677
:10011000D107C9F70E9439020C9406040C94000020
:1001200090E0FC01EA54FF4F24918E559F4FFC0153
:100130008491882399F090E0880F991FFC01E8567C
:10014000FF4FA591B491FC01E257FF4F8591949127
:100150008FB7F894EC91E22BEC938FBF089590E069
:10016000FC01E859FF4F2491FC01EA54FF4F349100
:10017000FC01EE55FF4FE491EE23C9F0222339F044
:10018000233001F1A8F4213019F1223029F1F0E0F7
:10019000EE0FFF1FE257FF4FA591B4918FB7F89470
:1001A000EC91611126C030953E233C938FBF08959A
:1001B0002730A9F02830C9F0243049F78091800019
:1001C0008F7D03C0809180008F7780938000DFCF88
:1001D00084B58F7784BDDBCF84B58F7DFBCF8091D5
:1001E000B0008F778093B000D2CF8091B0008F7D28
:1001F000F9CF3E2BDACF8E50806480937C008091C3
:100200007A00806480937A0080917A0086FDFCCF2A
:10021000809178009091790008958230910538F0AE
:10022000880F991F880F991F05970197F1F7089577
:10023000CF93DF939CB59F7D9CBD9CB5937F9CBD68
:100240009CB59C7F9CBD9DB591609DBDC6E1D1E0F4
:10025000682F8A810E94AF008C899D89DF91CF91A0
:100260000C940D013FB7F894809111019091120107
:10027000A0911301B091140126B5A89B05C02F3F92
:1002800019F00196A11DB11D3FBFBA2FA92F982FBC
:100290008827BC01CD01620F711D811D911D42E0B7
:1002A000660F771F881F991F4A95D1F708958F927F
:1002B0009F92AF92BF92CF92DF92EF92FF920E94F5
:1002C00032014B015C0185E0C82ED12CE12CF12CD0
:1002D0000E943201681979098A099B09683E7340B6
:1002E00081059105A8F321E0C21AD108E108F108BF
:1002F00088EE880E83E0981EA11CB11CC114D104A5
:10030000E104F10429F7FF90EF90DF90CF90BF90C8
:10031000AF909F908F9008958EBD00000DB407FEA2
:10032000FDCF8EB50895CF93DF93C82FD62F80E0F1
:100330000E9418018C2F8F7180620E948C01C82F3F
:100340008D2F0E948C0181E00E9418018C2FDF917B
:10035000CF910895CF93C82F80E00E9418018C2F71
:100360000E948C018FEF0E948C01C82F81E00E94B7
:1003700018018C2FCF910895EF92FF920F931F9346
:10038000CF93DF93C82F7B01142F80E00E941801C8
:100390008C2F8F7180620E948C01082FE701115011
:1003A00020F089910E948C01FACF81E00E9418010F
:1003B000802FDF91CF911F910F91FF90EF900895C3
:1003C000CF93C82F80E00E9418018C2F0E948C01CF
:1003D000C82F81E00E9418018C2FCF9108951F92A1
:1003E0000F920FB60F9211242F933F938F939F93E9
:1003F000AF93BF9380910D0190910E01A0910F01D9
:10040000B091100130910C0123E0230F2D3758F5E6
:100410000196A11DB11D20930C0180930D019093B5
:100420000E01A0930F01B0931001809111019091E2
:100430001201A0911301B09114010196A11DB11DEB
:100440008093110190931201A0931301B0931401B2
:10045000BF91AF919F918F913F912F910F900FBEC0
:100460000F901F90189526E8230F0296A11DB11D2D
:10047000D2CF789484B5826084BD84B5816084BD18
:1004800085B5826085BD85B5816085BD80916E0032
:10049000816080936E001092810080918100826063
:1004A00080938100809181008160809381008091A0
:1004B00080008160809380008091B100846080938F
:1004C000B1008091B00081608093B00080917A008B
:1004D000846080937A0080917A00826080937A00B1
:1004E00080917A00816080937A0080917A008068A0
:1004F00080937A001092C1000E94570184E00E940C
:1005000090000E945701809116019091170120914F
:100510001801309119018217930711F00E94900081
:1005200080911801909119012091160130911701C5
:100530002817390711F00E949000CFB7F8948091E6
:100540001501811124C0ECEAF0E08491E0ECF0E0C8
:100550009491E82FF0E0EE0FFF1FE856FF4FA591B2
:10056000B491EC91E92321F461E08AE00E94AF00AC
:100570008AE00E9490008CB580618CBD8CB580644F
:100580008CBD8DE00E9490008BE00E9490008091D5
:1005900015018F5F80931501CFBF80911601909157
:1005A000170120911801309119018217930719F052
:1005B00060E00E94AF0081E00E9418010E94570194
:1005C0006CE080E00E9493016FE584E00E9493015B
:1005D00086E00E94AA01877DC82FC0628BE990E067
:1005E000A0E0B0E08093260190932701A09328011A
:1005F000B09329016C2F86E00E94930186E00E944F
:10060000AA01C81303C081E080931C0186E00E9408
:10061000AA0186E00E94AA0145E550E060E070E092
:10062000409326015093270160932801709329017C
:10063000682F677D86E00E94930186E00E94AA01F0
:1006400080E00E94180180E50E948C0183E70E94EF
:100650008C0181E00E94180160E08DE10E9493010D
:1006600060E08CE10E94930110921E0160E787E038
:100670000E9493016CE485E00E94930182EE0E9447
:10068000E00181EE0E94E00180E00E94AA0181FD6C
:1006900007C0682F626080E00E9493010E945701AA
:1006A00080E00E94AA01682F6E7F80E00E94930183
:1006B0004091240166E071E08AE00E94BC01409113
:1006C000240166E071E080E10E94BC0160911D019F
:1006D00081E10E949301E3E8F0E0849140912401DC
:1006E00060E071E00E94BC01EDE7F0E08491609170
:1006F0001D010E94930182E00E94AA01E9E8F0E056
:10070000E49161E070E001C0660FEA95EAF7682BBA
:1007100082E00E94930186E00E94AA01887F682FF0
:10072000616086E00E949301C8E8D0E001E010E03B
:1007300080E0E82E80E0F82E0E945701809116019B
:100740009091170120911801309119018217930798
:1007500019F060E00E94AF0080912601909127017E
:100760000E940D018DE10E94AA0181FF09C08091C4
:100770002601909127010E940D0181EE0E94E00167
:1007800080E00E94AA01682F6E7F80E00E949301A2
:1007900082E00E94AA01FE019491B80101C0660F97
:1007A0009A95EAF7682B82E00E9493018FE00E94FD
:1007B000FB008EE00E94FB0080E10E94FB00E11440
:1007C000F10409F4B9CF0E940000B6CFE6E1F1E0F0
:1007D00087E090E09183808388E090E09383828338
:1007E000168280E28783108685E0868785E090E028
:1007F000A0E0B0E0848B958BA68BB78B1186089513
:10080000EE0FFF1F0590F491E02D0994F894FFCFAF
:0C081000303030303100303030303200F9
:107E0000112484B714BE81FFF0D085E080938100F7
:107E100082E08093C00088E18093C10086E0809377
:107E2000C20080E18093C4008EE0C9D0259A86E02C
:107E300020E33CEF91E0309385002093840096BBD3
:107E4000B09BFECF1D9AA8958150A9F7CC24DD24C4
:107E500088248394B5E0AB2EA1E19A2EF3E0BF2EE7
:107E6000A2D0813461F49FD0082FAFD0023811F036
:107E7000013811F484E001C083E08DD089C08234E0
:107E800011F484E103C0853419F485E0A6D080C0E4
:107E9000853579F488D0E82EFF2485D0082F10E0AE
:107EA000102F00270E291F29000F111F8ED06801E7
:107EB0006FC0863521F484E090D080E0DECF843638
:107EC00009F040C070D06FD0082F6DD080E0C81688
:107ED00080E7D80618F4F601B7BEE895C0E0D1E017
:107EE00062D089930C17E1F7F0E0CF16F0E7DF06D8
:107EF00018F0F601B7BEE89568D007B600FCFDCFD4
:107F0000A601A0E0B1E02C9130E011968C91119780
:107F100090E0982F8827822B932B1296FA010C0160
:107F200087BEE89511244E5F5F4FF1E0A038BF0790
:107F300051F7F601A7BEE89507B600FCFDCF97BE46
:107F4000E89526C08437B1F42ED02DD0F82E2BD052
:107F50003CD0F601EF2C8F010F5F1F4F84911BD097
:107F6000EA94F801C1F70894C11CD11CFA94CF0C13
:107F7000D11C0EC0853739F428D08EE10CD085E9AC
:107F80000AD08FE07ACF813511F488E018D01DD067
:107F900080E101D065CF982F8091C00085FFFCCF94
:107FA0009093C60008958091C00087FFFCCF809118
:107FB000C00084FD01C0A8958091C6000895E0E648
:107FC000F0E098E1908380830895EDDF803219F02E
:107FD00088E0F5DFFFCF84E1DECF1F93182FE3DFCA
:107FE0001150E9F7F2DF1F91089580E0E8DFEE27F6
:047FF000FF270994CA
:027FFE00040479
:0400000300007E007B
:00000001FF
